{
  "abi": [
    {
      "inputs": [],
      "stateMutability": "nonpayable",
      "type": "constructor"
    },
    {
      "inputs": [
        {
          "internalType": "uint256",
          "name": "profit",
          "type": "uint256"
        },
        {
          "internalType": "uint256",
          "name": "loss",
          "type": "uint256"
        },
        {
          "internalType": "uint256",
          "name": "debtPayment",
          "type": "uint256"
        },
        {
          "internalType": "uint256",
          "name": "debtOutstanding",
          "type": "uint256"
        },
        {
          "internalType": "uint256",
          "name": "totalDebt",
          "type": "uint256"
        }
      ],
      "name": "check",
      "outputs": [
        {
          "internalType": "bool",
          "name": "",
          "type": "bool"
        }
      ],
      "stateMutability": "view",
      "type": "function"
    },
    {
      "inputs": [
        {
          "internalType": "address",
          "name": "",
          "type": "address"
        }
      ],
      "name": "checks",
      "outputs": [
        {
          "internalType": "address",
          "name": "",
          "type": "address"
        }
      ],
      "stateMutability": "view",
      "type": "function"
    },
    {
      "inputs": [],
      "name": "governance",
      "outputs": [
        {
          "internalType": "address",
          "name": "",
          "type": "address"
        }
      ],
      "stateMutability": "view",
      "type": "function"
    },
    {
      "inputs": [],
      "name": "lossLimitRatio",
      "outputs": [
        {
          "internalType": "uint256",
          "name": "",
          "type": "uint256"
        }
      ],
      "stateMutability": "view",
      "type": "function"
    },
    {
      "inputs": [],
      "name": "management",
      "outputs": [
        {
          "internalType": "address",
          "name": "",
          "type": "address"
        }
      ],
      "stateMutability": "view",
      "type": "function"
    },
    {
      "inputs": [],
      "name": "profitLimitRatio",
      "outputs": [
        {
          "internalType": "uint256",
          "name": "",
          "type": "uint256"
        }
      ],
      "stateMutability": "view",
      "type": "function"
    },
    {
      "inputs": [
        {
          "internalType": "address",
          "name": "_strategy",
          "type": "address"
        },
        {
          "internalType": "address",
          "name": "_check",
          "type": "address"
        }
      ],
      "name": "setCheck",
      "outputs": [],
      "stateMutability": "nonpayable",
      "type": "function"
    },
    {
      "inputs": [
        {
          "internalType": "address",
          "name": "_governance",
          "type": "address"
        }
      ],
      "name": "setGovernance",
      "outputs": [],
      "stateMutability": "nonpayable",
      "type": "function"
    },
    {
      "inputs": [
        {
          "internalType": "address",
          "name": "_management",
          "type": "address"
        }
      ],
      "name": "setManagement",
      "outputs": [],
      "stateMutability": "nonpayable",
      "type": "function"
    },
    {
      "inputs": [
        {
          "internalType": "uint256",
          "name": "_profitLimitRatio",
          "type": "uint256"
        }
      ],
      "name": "setProfitLimitRatio",
      "outputs": [],
      "stateMutability": "nonpayable",
      "type": "function"
    },
    {
      "inputs": [
        {
          "internalType": "address",
          "name": "_strategy",
          "type": "address"
        },
        {
          "internalType": "uint256",
          "name": "_profitLimitRatio",
          "type": "uint256"
        },
        {
          "internalType": "uint256",
          "name": "_lossLimitRatio",
          "type": "uint256"
        }
      ],
      "name": "setStrategyLimits",
      "outputs": [],
      "stateMutability": "nonpayable",
      "type": "function"
    },
    {
      "inputs": [
        {
          "internalType": "uint256",
          "name": "_lossLimitRatio",
          "type": "uint256"
        }
      ],
      "name": "setlossLimitRatio",
      "outputs": [],
      "stateMutability": "nonpayable",
      "type": "function"
    },
    {
      "inputs": [
        {
          "internalType": "address",
          "name": "",
          "type": "address"
        }
      ],
      "name": "strategiesLimits",
      "outputs": [
        {
          "internalType": "uint256",
          "name": "profitLimitRatio",
          "type": "uint256"
        },
        {
          "internalType": "uint256",
          "name": "lossLimitRatio",
          "type": "uint256"
        },
        {
          "internalType": "bool",
          "name": "exists",
          "type": "bool"
        }
      ],
      "stateMutability": "view",
      "type": "function"
    }
  ],
  "bytecode": "608060405234801561001057600080fd5b50600380546001600160a01b03199081163390811790925560048054909116909117905561012c600055606460015561084f8061004e6000396000f3fe608060405234801561001057600080fd5b50600436106100ce5760003560e01c80637d9699321161008c578063ab033ea911610066578063ab033ea914610177578063c70fa00b1461018a578063c9354337146101aa578063d4a22bde146101cc576100ce565b80637d9699321461015457806388a8d6021461015c578063950b3d7314610164576100ce565b8062fd31f0146100d35780630ef5ee02146100e85780631afdc5a2146100fb57806327fff0db1461010e5780634a5d0943146101375780635aa6e6751461014c575b600080fd5b6100e66100e13660046106e3565b6101df565b005b6100e66100f6366004610736565b61029a565b6100e66101093660046106af565b6102ec565b61012161011c366004610694565b610359565b60405161012e9190610788565b60405180910390f35b61013f610374565b60405161012e91906107cc565b61012161037a565b61013f610389565b61012161038f565b6100e6610172366004610736565b61039e565b6100e6610185366004610694565b6103f0565b61019d61019836600461074e565b61044f565b60405161012e919061079c565b6101bd6101b8366004610694565b61046a565b60405161012e939291906107d5565b6100e66101da366004610694565b61048d565b6003546001600160a01b031633148061020257506004546001600160a01b031633145b6102275760405162461bcd60e51b815260040161021e906107a7565b60405180910390fd5b612710811061023557600080fd5b612710821061024357600080fd5b60408051606081018252928352602080840192835260018483018181526001600160a01b03969096166000908152600292839052929092209351845591519083015591519101805460ff1916911515919091179055565b6003546001600160a01b03163314806102bd57506004546001600160a01b031633145b6102d95760405162461bcd60e51b815260040161021e906107a7565b61271081106102e757600080fd5b600155565b6003546001600160a01b031633148061030f57506004546001600160a01b031633145b61032b5760405162461bcd60e51b815260040161021e906107a7565b6001600160a01b03918216600090815260056020526040902080546001600160a01b03191691909216179055565b6005602052600090815260409020546001600160a01b031681565b60005481565b6003546001600160a01b031681565b60015481565b6004546001600160a01b031681565b6003546001600160a01b03163314806103c157506004546001600160a01b031633145b6103dd5760405162461bcd60e51b815260040161021e906107a7565b61271081106103eb57600080fd5b600055565b6003546001600160a01b0316331461041a5760405162461bcd60e51b815260040161021e906107a7565b6001600160a01b03811661042d57600080fd5b600380546001600160a01b0319166001600160a01b0392909216919091179055565b600061045e86868686866104ec565b90505b95945050505050565b600260208190526000918252604090912080546001820154919092015460ff1683565b6003546001600160a01b031633146104b75760405162461bcd60e51b815260040161021e906107a7565b6001600160a01b0381166104ca57600080fd5b600480546001600160a01b0319166001600160a01b0392909216919091179055565b336000908152600560205260408120546001600160a01b03168061051d576105158787856105ac565b915050610461565b60405163e53ec13f60e01b81526001600160a01b0382169063e53ec13f90610551908a908a908a908a9033906004016107ed565b60206040518083038186803b15801561056957600080fd5b505afa15801561057d573d6000803e3d6000fd5b505050506040513d601f19601f820116820180604052508101906105a19190610716565b979650505050505050565b60006105b6610654565b503360009081526002602081815260408084208151606081018352815481526001820154938101939093529092015460ff16158015928201929092529190819061060857505080516020820151610611565b50506000546001545b6127108583020487111561062b576000935050505061064d565b61271085820204861115610645576000935050505061064d565b600193505050505b9392505050565b604051806060016040528060008152602001600081526020016000151581525090565b80356001600160a01b038116811461068e57600080fd5b92915050565b6000602082840312156106a5578081fd5b61064d8383610677565b600080604083850312156106c1578081fd5b6106cb8484610677565b91506106da8460208501610677565b90509250929050565b6000806000606084860312156106f7578081fd5b6107018585610677565b95602085013595506040909401359392505050565b600060208284031215610727578081fd5b8151801515811461064d578182fd5b600060208284031215610747578081fd5b5035919050565b600080600080600060a08688031215610765578081fd5b505083359560208501359550604085013594606081013594506080013592509050565b6001600160a01b0391909116815260200190565b901515815260200190565b6020808252600b908201526a08585d5d1a1bdc9a5e995960aa1b604082015260600190565b90815260200190565b92835260208301919091521515604082015260600190565b9485526020850193909352604084019190915260608301526001600160a01b0316608082015260a0019056fea264697066735822122076eaa6acd1aa009409b66efc56821ea03f080d647eec73c2a3c73b1a1d0e7dc864736f6c634300060c0033",
  "bytecodeSha1": "c23bbba352b8de24c015d0a1a1137363aa19ba26",
  "compiler": {
    "evm_version": "istanbul",
    "optimizer": {
      "enabled": true,
      "runs": 200
    },
    "version": "0.6.12+commit.27d51765"
  },
  "contractName": "CommonHealthCheck",
  "language": "Solidity",
  "natspec": {
    "kind": "dev",
    "methods": {},
    "version": 1
  },
  "opcodes": "PUSH1 0x80 PUSH1 0x40 MSTORE CALLVALUE DUP1 ISZERO PUSH2 0x10 JUMPI PUSH1 0x0 DUP1 REVERT JUMPDEST POP PUSH1 0x4 CALLDATASIZE LT PUSH2 0xCE JUMPI PUSH1 0x0 CALLDATALOAD PUSH1 0xE0 SHR DUP1 PUSH4 0x7D969932 GT PUSH2 0x8C JUMPI DUP1 PUSH4 0xAB033EA9 GT PUSH2 0x66 JUMPI DUP1 PUSH4 0xAB033EA9 EQ PUSH2 0x177 JUMPI DUP1 PUSH4 0xC70FA00B EQ PUSH2 0x18A JUMPI DUP1 PUSH4 0xC9354337 EQ PUSH2 0x1AA JUMPI DUP1 PUSH4 0xD4A22BDE EQ PUSH2 0x1CC JUMPI PUSH2 0xCE JUMP JUMPDEST DUP1 PUSH4 0x7D969932 EQ PUSH2 0x154 JUMPI DUP1 PUSH4 0x88A8D602 EQ PUSH2 0x15C JUMPI DUP1 PUSH4 0x950B3D73 EQ PUSH2 0x164 JUMPI PUSH2 0xCE JUMP JUMPDEST DUP1 PUSH3 0xFD31F0 EQ PUSH2 0xD3 JUMPI DUP1 PUSH4 0xEF5EE02 EQ PUSH2 0xE8 JUMPI DUP1 PUSH4 0x1AFDC5A2 EQ PUSH2 0xFB JUMPI DUP1 PUSH4 0x27FFF0DB EQ PUSH2 0x10E JUMPI DUP1 PUSH4 0x4A5D0943 EQ PUSH2 0x137 JUMPI DUP1 PUSH4 0x5AA6E675 EQ PUSH2 0x14C JUMPI JUMPDEST PUSH1 0x0 DUP1 REVERT JUMPDEST PUSH2 0xE6 PUSH2 0xE1 CALLDATASIZE PUSH1 0x4 PUSH2 0x6E3 JUMP JUMPDEST PUSH2 0x1DF JUMP JUMPDEST STOP JUMPDEST PUSH2 0xE6 PUSH2 0xF6 CALLDATASIZE PUSH1 0x4 PUSH2 0x736 JUMP JUMPDEST PUSH2 0x29A JUMP JUMPDEST PUSH2 0xE6 PUSH2 0x109 CALLDATASIZE PUSH1 0x4 PUSH2 0x6AF JUMP JUMPDEST PUSH2 0x2EC JUMP JUMPDEST PUSH2 0x121 PUSH2 0x11C CALLDATASIZE PUSH1 0x4 PUSH2 0x694 JUMP JUMPDEST PUSH2 0x359 JUMP JUMPDEST PUSH1 0x40 MLOAD PUSH2 0x12E SWAP2 SWAP1 PUSH2 0x788 JUMP JUMPDEST PUSH1 0x40 MLOAD DUP1 SWAP2 SUB SWAP1 RETURN JUMPDEST PUSH2 0x13F PUSH2 0x374 JUMP JUMPDEST PUSH1 0x40 MLOAD PUSH2 0x12E SWAP2 SWAP1 PUSH2 0x7CC JUMP JUMPDEST PUSH2 0x121 PUSH2 0x37A JUMP JUMPDEST PUSH2 0x13F PUSH2 0x389 JUMP JUMPDEST PUSH2 0x121 PUSH2 0x38F JUMP JUMPDEST PUSH2 0xE6 PUSH2 0x172 CALLDATASIZE PUSH1 0x4 PUSH2 0x736 JUMP JUMPDEST PUSH2 0x39E JUMP JUMPDEST PUSH2 0xE6 PUSH2 0x185 CALLDATASIZE PUSH1 0x4 PUSH2 0x694 JUMP JUMPDEST PUSH2 0x3F0 JUMP JUMPDEST PUSH2 0x19D PUSH2 0x198 CALLDATASIZE PUSH1 0x4 PUSH2 0x74E JUMP JUMPDEST PUSH2 0x44F JUMP JUMPDEST PUSH1 0x40 MLOAD PUSH2 0x12E SWAP2 SWAP1 PUSH2 0x79C JUMP JUMPDEST PUSH2 0x1BD PUSH2 0x1B8 CALLDATASIZE PUSH1 0x4 PUSH2 0x694 JUMP JUMPDEST PUSH2 0x46A JUMP JUMPDEST PUSH1 0x40 MLOAD PUSH2 0x12E SWAP4 SWAP3 SWAP2 SWAP1 PUSH2 0x7D5 JUMP JUMPDEST PUSH2 0xE6 PUSH2 0x1DA CALLDATASIZE PUSH1 0x4 PUSH2 0x694 JUMP JUMPDEST PUSH2 0x48D JUMP JUMPDEST PUSH1 0x3 SLOAD PUSH1 0x1 PUSH1 0x1 PUSH1 0xA0 SHL SUB AND CALLER EQ DUP1 PUSH2 0x202 JUMPI POP PUSH1 0x4 SLOAD PUSH1 0x1 PUSH1 0x1 PUSH1 0xA0 SHL SUB AND CALLER EQ JUMPDEST PUSH2 0x227 JUMPI PUSH1 0x40 MLOAD PUSH3 0x461BCD PUSH1 0xE5 SHL DUP2 MSTORE PUSH1 0x4 ADD PUSH2 0x21E SWAP1 PUSH2 0x7A7 JUMP JUMPDEST PUSH1 0x40 MLOAD DUP1 SWAP2 SUB SWAP1 REVERT JUMPDEST PUSH2 0x2710 DUP2 LT PUSH2 0x235 JUMPI PUSH1 0x0 DUP1 REVERT JUMPDEST PUSH2 0x2710 DUP3 LT PUSH2 0x243 JUMPI PUSH1 0x0 DUP1 REVERT JUMPDEST PUSH1 0x40 DUP1 MLOAD PUSH1 0x60 DUP2 ADD DUP3 MSTORE SWAP3 DUP4 MSTORE PUSH1 0x20 DUP1 DUP5 ADD SWAP3 DUP4 MSTORE PUSH1 0x1 DUP5 DUP4 ADD DUP2 DUP2 MSTORE PUSH1 0x1 PUSH1 0x1 PUSH1 0xA0 SHL SUB SWAP7 SWAP1 SWAP7 AND PUSH1 0x0 SWAP1 DUP2 MSTORE PUSH1 0x2 SWAP3 DUP4 SWAP1 MSTORE SWAP3 SWAP1 SWAP3 KECCAK256 SWAP4 MLOAD DUP5 SSTORE SWAP2 MLOAD SWAP1 DUP4 ADD SSTORE SWAP2 MLOAD SWAP2 ADD DUP1 SLOAD PUSH1 0xFF NOT AND SWAP2 ISZERO ISZERO SWAP2 SWAP1 SWAP2 OR SWAP1 SSTORE JUMP JUMPDEST PUSH1 0x3 SLOAD PUSH1 0x1 PUSH1 0x1 PUSH1 0xA0 SHL SUB AND CALLER EQ DUP1 PUSH2 0x2BD JUMPI POP PUSH1 0x4 SLOAD PUSH1 0x1 PUSH1 0x1 PUSH1 0xA0 SHL SUB AND CALLER EQ JUMPDEST PUSH2 0x2D9 JUMPI PUSH1 0x40 MLOAD PUSH3 0x461BCD PUSH1 0xE5 SHL DUP2 MSTORE PUSH1 0x4 ADD PUSH2 0x21E SWAP1 PUSH2 0x7A7 JUMP JUMPDEST PUSH2 0x2710 DUP2 LT PUSH2 0x2E7 JUMPI PUSH1 0x0 DUP1 REVERT JUMPDEST PUSH1 0x1 SSTORE JUMP JUMPDEST PUSH1 0x3 SLOAD PUSH1 0x1 PUSH1 0x1 PUSH1 0xA0 SHL SUB AND CALLER EQ DUP1 PUSH2 0x30F JUMPI POP PUSH1 0x4 SLOAD PUSH1 0x1 PUSH1 0x1 PUSH1 0xA0 SHL SUB AND CALLER EQ JUMPDEST PUSH2 0x32B JUMPI PUSH1 0x40 MLOAD PUSH3 0x461BCD PUSH1 0xE5 SHL DUP2 MSTORE PUSH1 0x4 ADD PUSH2 0x21E SWAP1 PUSH2 0x7A7 JUMP JUMPDEST PUSH1 0x1 PUSH1 0x1 PUSH1 0xA0 SHL SUB SWAP2 DUP3 AND PUSH1 0x0 SWAP1 DUP2 MSTORE PUSH1 0x5 PUSH1 0x20 MSTORE PUSH1 0x40 SWAP1 KECCAK256 DUP1 SLOAD PUSH1 0x1 PUSH1 0x1 PUSH1 0xA0 SHL SUB NOT AND SWAP2 SWAP1 SWAP3 AND OR SWAP1 SSTORE JUMP JUMPDEST PUSH1 0x5 PUSH1 0x20 MSTORE PUSH1 0x0 SWAP1 DUP2 MSTORE PUSH1 0x40 SWAP1 KECCAK256 SLOAD PUSH1 0x1 PUSH1 0x1 PUSH1 0xA0 SHL SUB AND DUP2 JUMP JUMPDEST PUSH1 0x0 SLOAD DUP2 JUMP JUMPDEST PUSH1 0x3 SLOAD PUSH1 0x1 PUSH1 0x1 PUSH1 0xA0 SHL SUB AND DUP2 JUMP JUMPDEST PUSH1 0x1 SLOAD DUP2 JUMP JUMPDEST PUSH1 0x4 SLOAD PUSH1 0x1 PUSH1 0x1 PUSH1 0xA0 SHL SUB AND DUP2 JUMP JUMPDEST PUSH1 0x3 SLOAD PUSH1 0x1 PUSH1 0x1 PUSH1 0xA0 SHL SUB AND CALLER EQ DUP1 PUSH2 0x3C1 JUMPI POP PUSH1 0x4 SLOAD PUSH1 0x1 PUSH1 0x1 PUSH1 0xA0 SHL SUB AND CALLER EQ JUMPDEST PUSH2 0x3DD JUMPI PUSH1 0x40 MLOAD PUSH3 0x461BCD PUSH1 0xE5 SHL DUP2 MSTORE PUSH1 0x4 ADD PUSH2 0x21E SWAP1 PUSH2 0x7A7 JUMP JUMPDEST PUSH2 0x2710 DUP2 LT PUSH2 0x3EB JUMPI PUSH1 0x0 DUP1 REVERT JUMPDEST PUSH1 0x0 SSTORE JUMP JUMPDEST PUSH1 0x3 SLOAD PUSH1 0x1 PUSH1 0x1 PUSH1 0xA0 SHL SUB AND CALLER EQ PUSH2 0x41A JUMPI PUSH1 0x40 MLOAD PUSH3 0x461BCD PUSH1 0xE5 SHL DUP2 MSTORE PUSH1 0x4 ADD PUSH2 0x21E SWAP1 PUSH2 0x7A7 JUMP JUMPDEST PUSH1 0x1 PUSH1 0x1 PUSH1 0xA0 SHL SUB DUP2 AND PUSH2 0x42D JUMPI PUSH1 0x0 DUP1 REVERT JUMPDEST PUSH1 0x3 DUP1 SLOAD PUSH1 0x1 PUSH1 0x1 PUSH1 0xA0 SHL SUB NOT AND PUSH1 0x1 PUSH1 0x1 PUSH1 0xA0 SHL SUB SWAP3 SWAP1 SWAP3 AND SWAP2 SWAP1 SWAP2 OR SWAP1 SSTORE JUMP JUMPDEST PUSH1 0x0 PUSH2 0x45E DUP7 DUP7 DUP7 DUP7 DUP7 PUSH2 0x4EC JUMP JUMPDEST SWAP1 POP JUMPDEST SWAP6 SWAP5 POP POP POP POP POP JUMP JUMPDEST PUSH1 0x2 PUSH1 0x20 DUP2 SWAP1 MSTORE PUSH1 0x0 SWAP2 DUP3 MSTORE PUSH1 0x40 SWAP1 SWAP2 KECCAK256 DUP1 SLOAD PUSH1 0x1 DUP3 ADD SLOAD SWAP2 SWAP1 SWAP3 ADD SLOAD PUSH1 0xFF AND DUP4 JUMP JUMPDEST PUSH1 0x3 SLOAD PUSH1 0x1 PUSH1 0x1 PUSH1 0xA0 SHL SUB AND CALLER EQ PUSH2 0x4B7 JUMPI PUSH1 0x40 MLOAD PUSH3 0x461BCD PUSH1 0xE5 SHL DUP2 MSTORE PUSH1 0x4 ADD PUSH2 0x21E SWAP1 PUSH2 0x7A7 JUMP JUMPDEST PUSH1 0x1 PUSH1 0x1 PUSH1 0xA0 SHL SUB DUP2 AND PUSH2 0x4CA JUMPI PUSH1 0x0 DUP1 REVERT JUMPDEST PUSH1 0x4 DUP1 SLOAD PUSH1 0x1 PUSH1 0x1 PUSH1 0xA0 SHL SUB NOT AND PUSH1 0x1 PUSH1 0x1 PUSH1 0xA0 SHL SUB SWAP3 SWAP1 SWAP3 AND SWAP2 SWAP1 SWAP2 OR SWAP1 SSTORE JUMP JUMPDEST CALLER PUSH1 0x0 SWAP1 DUP2 MSTORE PUSH1 0x5 PUSH1 0x20 MSTORE PUSH1 0x40 DUP2 KECCAK256 SLOAD PUSH1 0x1 PUSH1 0x1 PUSH1 0xA0 SHL SUB AND DUP1 PUSH2 0x51D JUMPI PUSH2 0x515 DUP8 DUP8 DUP6 PUSH2 0x5AC JUMP JUMPDEST SWAP2 POP POP PUSH2 0x461 JUMP JUMPDEST PUSH1 0x40 MLOAD PUSH4 0xE53EC13F PUSH1 0xE0 SHL DUP2 MSTORE PUSH1 0x1 PUSH1 0x1 PUSH1 0xA0 SHL SUB DUP3 AND SWAP1 PUSH4 0xE53EC13F SWAP1 PUSH2 0x551 SWAP1 DUP11 SWAP1 DUP11 SWAP1 DUP11 SWAP1 DUP11 SWAP1 CALLER SWAP1 PUSH1 0x4 ADD PUSH2 0x7ED JUMP JUMPDEST PUSH1 0x20 PUSH1 0x40 MLOAD DUP1 DUP4 SUB DUP2 DUP7 DUP1 EXTCODESIZE ISZERO DUP1 ISZERO PUSH2 0x569 JUMPI PUSH1 0x0 DUP1 REVERT JUMPDEST POP GAS STATICCALL ISZERO DUP1 ISZERO PUSH2 0x57D JUMPI RETURNDATASIZE PUSH1 0x0 DUP1 RETURNDATACOPY RETURNDATASIZE PUSH1 0x0 REVERT JUMPDEST POP POP POP POP PUSH1 0x40 MLOAD RETURNDATASIZE PUSH1 0x1F NOT PUSH1 0x1F DUP3 ADD AND DUP3 ADD DUP1 PUSH1 0x40 MSTORE POP DUP2 ADD SWAP1 PUSH2 0x5A1 SWAP2 SWAP1 PUSH2 0x716 JUMP JUMPDEST SWAP8 SWAP7 POP POP POP POP POP POP POP JUMP JUMPDEST PUSH1 0x0 PUSH2 0x5B6 PUSH2 0x654 JUMP JUMPDEST POP CALLER PUSH1 0x0 SWAP1 DUP2 MSTORE PUSH1 0x2 PUSH1 0x20 DUP2 DUP2 MSTORE PUSH1 0x40 DUP1 DUP5 KECCAK256 DUP2 MLOAD PUSH1 0x60 DUP2 ADD DUP4 MSTORE DUP2 SLOAD DUP2 MSTORE PUSH1 0x1 DUP3 ADD SLOAD SWAP4 DUP2 ADD SWAP4 SWAP1 SWAP4 MSTORE SWAP1 SWAP3 ADD SLOAD PUSH1 0xFF AND ISZERO DUP1 ISZERO SWAP3 DUP3 ADD SWAP3 SWAP1 SWAP3 MSTORE SWAP2 SWAP1 DUP2 SWAP1 PUSH2 0x608 JUMPI POP POP DUP1 MLOAD PUSH1 0x20 DUP3 ADD MLOAD PUSH2 0x611 JUMP JUMPDEST POP POP PUSH1 0x0 SLOAD PUSH1 0x1 SLOAD JUMPDEST PUSH2 0x2710 DUP6 DUP4 MUL DIV DUP8 GT ISZERO PUSH2 0x62B JUMPI PUSH1 0x0 SWAP4 POP POP POP POP PUSH2 0x64D JUMP JUMPDEST PUSH2 0x2710 DUP6 DUP3 MUL DIV DUP7 GT ISZERO PUSH2 0x645 JUMPI PUSH1 0x0 SWAP4 POP POP POP POP PUSH2 0x64D JUMP JUMPDEST PUSH1 0x1 SWAP4 POP POP POP POP JUMPDEST SWAP4 SWAP3 POP POP POP JUMP JUMPDEST PUSH1 0x40 MLOAD DUP1 PUSH1 0x60 ADD PUSH1 0x40 MSTORE DUP1 PUSH1 0x0 DUP2 MSTORE PUSH1 0x20 ADD PUSH1 0x0 DUP2 MSTORE PUSH1 0x20 ADD PUSH1 0x0 ISZERO ISZERO DUP2 MSTORE POP SWAP1 JUMP JUMPDEST DUP1 CALLDATALOAD PUSH1 0x1 PUSH1 0x1 PUSH1 0xA0 SHL SUB DUP2 AND DUP2 EQ PUSH2 0x68E JUMPI PUSH1 0x0 DUP1 REVERT JUMPDEST SWAP3 SWAP2 POP POP JUMP JUMPDEST PUSH1 0x0 PUSH1 0x20 DUP3 DUP5 SUB SLT ISZERO PUSH2 0x6A5 JUMPI DUP1 DUP2 REVERT JUMPDEST PUSH2 0x64D DUP4 DUP4 PUSH2 0x677 JUMP JUMPDEST PUSH1 0x0 DUP1 PUSH1 0x40 DUP4 DUP6 SUB SLT ISZERO PUSH2 0x6C1 JUMPI DUP1 DUP2 REVERT JUMPDEST PUSH2 0x6CB DUP5 DUP5 PUSH2 0x677 JUMP JUMPDEST SWAP2 POP PUSH2 0x6DA DUP5 PUSH1 0x20 DUP6 ADD PUSH2 0x677 JUMP JUMPDEST SWAP1 POP SWAP3 POP SWAP3 SWAP1 POP JUMP JUMPDEST PUSH1 0x0 DUP1 PUSH1 0x0 PUSH1 0x60 DUP5 DUP7 SUB SLT ISZERO PUSH2 0x6F7 JUMPI DUP1 DUP2 REVERT JUMPDEST PUSH2 0x701 DUP6 DUP6 PUSH2 0x677 JUMP JUMPDEST SWAP6 PUSH1 0x20 DUP6 ADD CALLDATALOAD SWAP6 POP PUSH1 0x40 SWAP1 SWAP5 ADD CALLDATALOAD SWAP4 SWAP3 POP POP POP JUMP JUMPDEST PUSH1 0x0 PUSH1 0x20 DUP3 DUP5 SUB SLT ISZERO PUSH2 0x727 JUMPI DUP1 DUP2 REVERT JUMPDEST DUP2 MLOAD DUP1 ISZERO ISZERO DUP2 EQ PUSH2 0x64D JUMPI DUP2 DUP3 REVERT JUMPDEST PUSH1 0x0 PUSH1 0x20 DUP3 DUP5 SUB SLT ISZERO PUSH2 0x747 JUMPI DUP1 DUP2 REVERT JUMPDEST POP CALLDATALOAD SWAP2 SWAP1 POP JUMP JUMPDEST PUSH1 0x0 DUP1 PUSH1 0x0 DUP1 PUSH1 0x0 PUSH1 0xA0 DUP7 DUP9 SUB SLT ISZERO PUSH2 0x765 JUMPI DUP1 DUP2 REVERT JUMPDEST POP POP DUP4 CALLDATALOAD SWAP6 PUSH1 0x20 DUP6 ADD CALLDATALOAD SWAP6 POP PUSH1 0x40 DUP6 ADD CALLDATALOAD SWAP5 PUSH1 0x60 DUP2 ADD CALLDATALOAD SWAP5 POP PUSH1 0x80 ADD CALLDATALOAD SWAP3 POP SWAP1 POP JUMP JUMPDEST PUSH1 0x1 PUSH1 0x1 PUSH1 0xA0 SHL SUB SWAP2 SWAP1 SWAP2 AND DUP2 MSTORE PUSH1 0x20 ADD SWAP1 JUMP JUMPDEST SWAP1 ISZERO ISZERO DUP2 MSTORE PUSH1 0x20 ADD SWAP1 JUMP JUMPDEST PUSH1 0x20 DUP1 DUP3 MSTORE PUSH1 0xB SWAP1 DUP3 ADD MSTORE PUSH11 0x8585D5D1A1BDC9A5E9959 PUSH1 0xAA SHL PUSH1 0x40 DUP3 ADD MSTORE PUSH1 0x60 ADD SWAP1 JUMP JUMPDEST SWAP1 DUP2 MSTORE PUSH1 0x20 ADD SWAP1 JUMP JUMPDEST SWAP3 DUP4 MSTORE PUSH1 0x20 DUP4 ADD SWAP2 SWAP1 SWAP2 MSTORE ISZERO ISZERO PUSH1 0x40 DUP3 ADD MSTORE PUSH1 0x60 ADD SWAP1 JUMP JUMPDEST SWAP5 DUP6 MSTORE PUSH1 0x20 DUP6 ADD SWAP4 SWAP1 SWAP4 MSTORE PUSH1 0x40 DUP5 ADD SWAP2 SWAP1 SWAP2 MSTORE PUSH1 0x60 DUP4 ADD MSTORE PUSH1 0x1 PUSH1 0x1 PUSH1 0xA0 SHL SUB AND PUSH1 0x80 DUP3 ADD MSTORE PUSH1 0xA0 ADD SWAP1 JUMP INVALID LOG2 PUSH5 0x6970667358 0x22 SLT KECCAK256 PUSH23 0xEAA6ACD1AA009409B66EFC56821EA03F080D647EEC73C2 LOG3 0xC7 EXTCODESIZE BYTE SAR 0xE PUSH30 0xC864736F6C634300060C0033000000000000000000000000000000000000 ",
  "sha1": "71811c33fa20460354172b93c2a885bb3dc68283",
  "source": "// SPDX-License-Identifier: GPL-3.0\npragma solidity >=0.6.0 <0.7.0;\npragma experimental ABIEncoderV2;\n\ninterface CustomHealthCheck {\n    function check(\n        uint256 profit,\n        uint256 loss,\n        uint256 debtPayment,\n        uint256 debtOutstanding,\n        address callerStrategy\n    ) external view returns (bool);\n}\n\n// LEGACY INTERFACES PRE 0.3.2\nstruct LegacyStrategyParams {\n    uint256 performanceFee;\n    uint256 activation;\n    uint256 debtRatio;\n    uint256 rateLimit;\n    uint256 lastReport;\n    uint256 totalDebt;\n    uint256 totalGain;\n    uint256 totalLoss;\n}\n\nstruct Limits {\n    uint256 profitLimitRatio;\n    uint256 lossLimitRatio;\n    bool exists;\n}\n\ncontract CommonHealthCheck {\n    // Default Settings for all strategies\n    uint256 constant MAX_BPS = 10_000;\n    uint256 public profitLimitRatio;\n    uint256 public lossLimitRatio;\n    mapping(address => Limits) public strategiesLimits;\n\n    address public governance;\n    address public management;\n\n    mapping(address => address) public checks;\n\n    modifier onlyGovernance() {\n        require(msg.sender == governance, \"!authorized\");\n        _;\n    }\n\n    modifier onlyAuthorized() {\n        require(msg.sender == governance || msg.sender == management, \"!authorized\");\n        _;\n    }\n\n    constructor() public {\n        governance = msg.sender;\n        management = msg.sender;\n        profitLimitRatio = 300;\n        lossLimitRatio = 100;\n    }\n\n    function setGovernance(address _governance) external onlyGovernance {\n        require(_governance != address(0));\n        governance = _governance;\n    }\n\n    function setManagement(address _management) external onlyGovernance {\n        require(_management != address(0));\n        management = _management;\n    }\n\n    function setProfitLimitRatio(uint256 _profitLimitRatio) external onlyAuthorized {\n        require(_profitLimitRatio < MAX_BPS);\n        profitLimitRatio = _profitLimitRatio;\n    }\n\n    function setlossLimitRatio(uint256 _lossLimitRatio) external onlyAuthorized {\n        require(_lossLimitRatio < MAX_BPS);\n        lossLimitRatio = _lossLimitRatio;\n    }\n\n    function setStrategyLimits(\n        address _strategy,\n        uint256 _profitLimitRatio,\n        uint256 _lossLimitRatio\n    ) external onlyAuthorized {\n        require(_lossLimitRatio < MAX_BPS);\n        require(_profitLimitRatio < MAX_BPS);\n        strategiesLimits[_strategy] = Limits(_profitLimitRatio, _lossLimitRatio, true);\n    }\n\n    function setCheck(address _strategy, address _check) external onlyAuthorized {\n        checks[_strategy] = _check;\n    }\n\n    function check(\n        uint256 profit,\n        uint256 loss,\n        uint256 debtPayment,\n        uint256 debtOutstanding,\n        uint256 totalDebt\n    ) external view returns (bool) {\n        return _runChecks(profit, loss, debtPayment, debtOutstanding, totalDebt);\n    }\n\n    function _runChecks(\n        uint256 profit,\n        uint256 loss,\n        uint256 debtPayment,\n        uint256 debtOutstanding,\n        uint256 totalDebt\n    ) internal view returns (bool) {\n        address customCheck = checks[msg.sender];\n\n        if (customCheck == address(0)) {\n            return _executeDefaultCheck(profit, loss, totalDebt);\n        }\n\n        return CustomHealthCheck(customCheck).check(profit, loss, debtPayment, debtOutstanding, msg.sender);\n    }\n\n    function _executeDefaultCheck(\n        uint256 _profit,\n        uint256 _loss,\n        uint256 _totalDebt\n    ) internal view returns (bool) {\n        Limits memory limits = strategiesLimits[msg.sender];\n        uint256 _profitLimitRatio;\n        uint256 _lossLimitRatio;\n        if (limits.exists) {\n            _profitLimitRatio = limits.profitLimitRatio;\n            _lossLimitRatio = limits.lossLimitRatio;\n        } else {\n            _profitLimitRatio = profitLimitRatio;\n            _lossLimitRatio = lossLimitRatio;\n        }\n\n        if (_profit > ((_totalDebt * _profitLimitRatio) / MAX_BPS)) {\n            return false;\n        }\n        if (_loss > ((_totalDebt * _lossLimitRatio) / MAX_BPS)) {\n            return false;\n        }\n        return true;\n    }\n}\n",
  "sourcePath": "contracts/CommonHealthCheck.sol",
  "type": "contract"
}